{
  "contractName": "DMRforum",
  "abi": [
    {
      "constant": true,
      "inputs": [],
      "name": "rCount",
      "outputs": [
        {
          "internalType": "uint256",
          "name": "",
          "type": "uint256"
        }
      ],
      "payable": false,
      "stateMutability": "view",
      "type": "function"
    },
    {
      "constant": true,
      "inputs": [
        {
          "internalType": "uint256",
          "name": "",
          "type": "uint256"
        }
      ],
      "name": "reviews",
      "outputs": [
        {
          "internalType": "uint256",
          "name": "id",
          "type": "uint256"
        },
        {
          "internalType": "string",
          "name": "genre",
          "type": "string"
        },
        {
          "internalType": "string",
          "name": "mname",
          "type": "string"
        },
        {
          "internalType": "uint256",
          "name": "rating",
          "type": "uint256"
        },
        {
          "internalType": "string",
          "name": "description",
          "type": "string"
        },
        {
          "internalType": "uint256",
          "name": "ppl",
          "type": "uint256"
        },
        {
          "internalType": "address payable",
          "name": "author",
          "type": "address"
        }
      ],
      "payable": false,
      "stateMutability": "view",
      "type": "function"
    },
    {
      "constant": false,
      "inputs": [
        {
          "internalType": "string",
          "name": "_genre",
          "type": "string"
        },
        {
          "internalType": "string",
          "name": "_mname",
          "type": "string"
        },
        {
          "internalType": "uint256",
          "name": "_rating",
          "type": "uint256"
        },
        {
          "internalType": "string",
          "name": "_description",
          "type": "string"
        }
      ],
      "name": "addReview",
      "outputs": [],
      "payable": false,
      "stateMutability": "nonpayable",
      "type": "function"
    },
    {
      "constant": false,
      "inputs": [
        {
          "internalType": "uint256",
          "name": "_id",
          "type": "uint256"
        }
      ],
      "name": "fundReview",
      "outputs": [],
      "payable": true,
      "stateMutability": "payable",
      "type": "function"
    }
  ],
  "bytecode": "0x60806040526000805534801561001457600080fd5b50610cf6806100246000396000f3fe60806040526004361061003f5760003560e01c8063847b0d1e146100445780639021fe4a1461007257806396c993df14610272578063e83ddcea1461029d575b600080fd5b6100706004803603602081101561005a57600080fd5b8101908080359060200190929190505050610471565b005b34801561007e57600080fd5b506102706004803603608081101561009557600080fd5b81019080803590602001906401000000008111156100b257600080fd5b8201836020820111156100c457600080fd5b803590602001918460018302840111640100000000831117156100e657600080fd5b91908080601f016020809104026020016040519081016040528093929190818152602001838380828437600081840152601f19601f8201169050808301925050505050505091929192908035906020019064010000000081111561014957600080fd5b82018360208201111561015b57600080fd5b8035906020019184600183028401116401000000008311171561017d57600080fd5b91908080601f016020809104026020016040519081016040528093929190818152602001838380828437600081840152601f19601f82011690508083019250505050505050919291929080359060200190929190803590602001906401000000008111156101ea57600080fd5b8201836020820111156101fc57600080fd5b8035906020019184600183028401116401000000008311171561021e57600080fd5b91908080601f016020809104026020016040519081016040528093929190818152602001838380828437600081840152601f19601f820116905080830192505050505050509192919290505050610847565b005b34801561027e57600080fd5b50610287610999565b6040518082815260200191505060405180910390f35b3480156102a957600080fd5b506102d6600480360360208110156102c057600080fd5b810190808035906020019092919050505061099f565b604051808881526020018060200180602001878152602001806020018681526020018573ffffffffffffffffffffffffffffffffffffffff1673ffffffffffffffffffffffffffffffffffffffff16815260200184810384528a818151815260200191508051906020019080838360005b83811015610362578082015181840152602081019050610347565b50505050905090810190601f16801561038f5780820380516001836020036101000a031916815260200191505b50848103835289818151815260200191508051906020019080838360005b838110156103c85780820151818401526020810190506103ad565b50505050905090810190601f1680156103f55780820380516001836020036101000a031916815260200191505b50848103825287818151815260200191508051906020019080838360005b8381101561042e578082015181840152602081019050610413565b50505050905090810190601f16801561045b5780820380516001836020036101000a031916815260200191505b509a505050505050505050505060405180910390f35b60008111801561048357506000548111155b61048c57600080fd5b610494610bc9565b600160008381526020019081526020016000206040518060e001604052908160008201548152602001600182018054600181600116156101000203166002900480601f0160208091040260200160405190810160405280929190818152602001828054600181600116156101000203166002900480156105555780601f1061052a57610100808354040283529160200191610555565b820191906000526020600020905b81548152906001019060200180831161053857829003601f168201915b50505050508152602001600282018054600181600116156101000203166002900480601f0160208091040260200160405190810160405280929190818152602001828054600181600116156101000203166002900480156105f75780601f106105cc576101008083540402835291602001916105f7565b820191906000526020600020905b8154815290600101906020018083116105da57829003601f168201915b5050505050815260200160038201548152602001600482018054600181600116156101000203166002900480601f0160208091040260200160405190810160405280929190818152602001828054600181600116156101000203166002900480156106a35780601f10610678576101008083540402835291602001916106a3565b820191906000526020600020905b81548152906001019060200180831161068657829003601f168201915b50505050508152602001600582015481526020016006820160009054906101000a900473ffffffffffffffffffffffffffffffffffffffff1673ffffffffffffffffffffffffffffffffffffffff1673ffffffffffffffffffffffffffffffffffffffff1681525050905060008160c0015190508073ffffffffffffffffffffffffffffffffffffffff166108fc349081150290604051600060405180830381858888f1935050505015801561075d573d6000803e3d6000fd5b5060018260a00151018260a001818152505081600160008581526020019081526020016000206000820151816000015560208201518160010190805190602001906107a9929190610c1c565b5060408201518160020190805190602001906107c6929190610c1c565b506060820151816003015560808201518160040190805190602001906107ed929190610c1c565b5060a0820151816005015560c08201518160060160006101000a81548173ffffffffffffffffffffffffffffffffffffffff021916908373ffffffffffffffffffffffffffffffffffffffff160217905550905050505050565b600081511161085557600080fd5b600083511161086357600080fd5b60008081548092919060010191905055506040518060e001604052806000548152602001858152602001848152602001838152602001828152602001600081526020013373ffffffffffffffffffffffffffffffffffffffff1681525060016000805481526020019081526020016000206000820151816000015560208201518160010190805190602001906108fa929190610c1c565b506040820151816002019080519060200190610917929190610c1c565b5060608201518160030155608082015181600401908051906020019061093e929190610c1c565b5060a0820151816005015560c08201518160060160006101000a81548173ffffffffffffffffffffffffffffffffffffffff021916908373ffffffffffffffffffffffffffffffffffffffff16021790555090505050505050565b60005481565b6001602052806000526040600020600091509050806000015490806001018054600181600116156101000203166002900480601f016020809104026020016040519081016040528092919081815260200182805460018160011615610100020316600290048015610a515780601f10610a2657610100808354040283529160200191610a51565b820191906000526020600020905b815481529060010190602001808311610a3457829003601f168201915b505050505090806002018054600181600116156101000203166002900480601f016020809104026020016040519081016040528092919081815260200182805460018160011615610100020316600290048015610aef5780601f10610ac457610100808354040283529160200191610aef565b820191906000526020600020905b815481529060010190602001808311610ad257829003601f168201915b505050505090806003015490806004018054600181600116156101000203166002900480601f016020809104026020016040519081016040528092919081815260200182805460018160011615610100020316600290048015610b935780601f10610b6857610100808354040283529160200191610b93565b820191906000526020600020905b815481529060010190602001808311610b7657829003601f168201915b5050505050908060050154908060060160009054906101000a900473ffffffffffffffffffffffffffffffffffffffff16905087565b6040518060e00160405280600081526020016060815260200160608152602001600081526020016060815260200160008152602001600073ffffffffffffffffffffffffffffffffffffffff1681525090565b828054600181600116156101000203166002900490600052602060002090601f016020900481019282601f10610c5d57805160ff1916838001178555610c8b565b82800160010185558215610c8b579182015b82811115610c8a578251825591602001919060010190610c6f565b5b509050610c989190610c9c565b5090565b610cbe91905b80821115610cba576000816000905550600101610ca2565b5090565b9056fea265627a7a72315820d42c48cd0fd68295e1654041999692947db98e4f73be518abdbd13dac7320cac64736f6c63430005100032",
  "source": "pragma solidity ^0.5.0;\r\n\r\ncontract DMRforum {\r\n    uint public rCount=0;\r\n\r\n    mapping (uint => Review) public reviews;\r\n\r\n    struct Review {\r\n        uint id;\r\n        string genre;\r\n        string mname;\r\n        uint rating;\r\n        string description;\r\n        uint ppl;\r\n        address payable author;\r\n    }\r\n\r\n    function addReview(string memory _genre, string memory _mname, uint _rating, string memory _description) public{\r\n        require(bytes(_description).length > 0);\r\n        require(bytes(_mname).length > 0);\r\n        rCount++;\r\n        reviews[rCount] = Review(rCount, _genre, _mname, _rating, _description, 0, msg.sender);\r\n    }\r\n\r\n    function fundReview(uint _id) public payable{\r\n        require(_id > 0 && _id <= rCount);\r\n        Review memory _review = reviews[_id];\r\n        address payable _author = _review.author;\r\n        address(_author).transfer(msg.value);\r\n        _review.ppl = _review.ppl + 1;\r\n        reviews[_id] = _review;\r\n    }\r\n}",
  "sourcePath": "C:\\Users\\Abel Simon Zachariah\\Projects\\Decentral-wood\\src\\contracts\\DMRforum.sol",
  "compiler": {
    "name": "solc",
    "version": "0.5.16+commit.9c3226ce.Emscripten.clang"
  },
  "schemaVersion": "3.2.0",
  "updatedAt": "2020-11-13T17:26:46.649Z",
  "networkType": "ethereum",
  "devdoc": {
    "methods": {}
  },
  "userdoc": {
    "methods": {}
  }
}